:100000000C9446000C9463000C9463000C94630001
:100010000C9463000C9463000C9463000C946300D4
:100020000C9463000C9463000C9463000C946300C4
:100030000C9463000C9463000C9463000C946300B4
:100040000C9463000C9463000C9463000C946300A4
:100050000C9463000C9463000C9463000C94630094
:100060000C9463000C946300E1B718564FF4869229
:10007000BD30F4CE2B6D620B99A9D04707E63E84C4
:100080007522ACC0E35E1AFD519B883911241FBE56
:10009000CFEFD8E0DEBFCDBF11E0A0E0B1E0E2EAF3
:1000A000F3E002C005900D92AC33B107D9F721E01F
:1000B000ACE3B1E001C01D92A036B207E1F70E94A7
:1000C000F7000C94CF010C94000028E630E0ACE37C
:1000D000B1E0F90184913196E49190E09E2B8D93EB
:1000E0009D932E5F3F4FF1E0A036BF0791F7089533
:1000F0006F7077279C01062E02C0220F331F0A94CF
:10010000E2F77195619571096F70772702C0969536
:1001100087956A95E2F7822B932B08956F70772766
:100120009C01062E02C0369527950A94E2F7719538
:10013000619571096F70772702C0880F991F6A95C2
:10014000E2F7822B932B08951092C50087E68093E7
:10015000C40088E08093C10086E08093C2000895C7
:100160009091C00095FFFCCF8093C6000895CF9377
:10017000DF93EC018991882319F00E94B000FACF37
:10018000DF91CF910895CF93DF93CDB7DEB7279757
:100190000FB6F894DEBF0FBECDBF20E3298328E75A
:1001A0002A831F82FE013196BE01635071094E2FD2
:1001B0003F2F282F2F702A3010F4205D01C0295CBA
:1001C000258324E0969587952A95E1F73197E617E0
:1001D000F70779F7842F932F0E94B70027960FB661
:1001E000F894DEBF0FBECDBFDF91CF9108950E947E
:1001F000A4000E94650060913C0170913D017B016B
:100200002CECE21A2DEEF20AA0913E01B0913F01D2
:100210008D010858194AECE5F1E0CCE3D1E0E02685
:10022000F126C8018F7099279701082E02C0220F6E
:10023000331F0A94E2F79195819591098F70992760
:1002400002C0F694E7948A95E2F7E22AF32A8C81B9
:100250009D81E80EF91E0E251F25C7018F70992775
:100260009801082E02C0220F331F0A94E2F79195DD
:10027000819591098F70992702C0169507958A95E7
:10028000E2F7022B132B8E819F81080F191F2496F2
:1002900041E0CC35D40719F69801C701428153815A
:1002A000241B350BAC014F705527E901042E02C009
:1002B000D695C7950A94E2F75195419551094F702B
:1002C000552702C0220F331F4A95E2F72C2B3D2BF6
:1002D0002827392740815181841B950BA9014F7034
:1002E0005527EC01042E02C0D695C7950A94E2F773
:1002F0005195419551094F70552702C0880F991F9C
:100300004A95E2F78C2B9D2B82279327349741E067
:10031000EC33F40719F66901CA1ADB0AEC01C61BB3
:10032000D70B80E091E00E94B70084E392E10E9445
:10033000C3008FE091E00E94B70088E796E50E9435
:10034000C30085E191E00E94B700C7010E94C3008D
:1003500086E291E00E94B700C8010E94C3008BE2D0
:1003600091E00E94B7008DE291E00E94B700CE01BB
:100370000E94C30086E291E00E94B700C6010E947D
:10038000C3008BE291E00E94B7008FEF93ED20E372
:10039000815090402040E1F700C00000F6CFF89473
:0203A000FFCF8D
:1003A200506C61696E746578743A2041303D002C5E
:1003B2002042303D00202043697068657274657880
:1003C200743A20413D002C20423D000A0020446541
:0C03D200637279707465643A20413D004C
:00000001FF
